S00E000074696D6572312E73726563C4
S11300000C942A000C9447000C9447000C9447006D
S11300100C9447000C9447000C9447000C94470040
S11300200C9447000C9447000C9447000C94EA028B
S11300300C9447000C9447000C9447000C94470020
S11300400C9447000C9447000C9447000C94470010
S11300500C94470011241FBECFE5D4E0DEBFCDBF12
S113006010E0A0E6B0E0E6E6F0E102C005900D92F3
S1130070A436B107D9F720E0A4E6B0E001C01D9290
S1130080A537B207E1F70E9471000C9431080C9473
S113009000008FB582608FBD8EB588608EBD8EB531
S11300A080618EBD8EB58D7F8EBD8FB580688FBD0E
S11300B0089520E030E040E351E40E948C0420E005
S11300C030E04AEF53E40E9463030E94CF037BBDF8
S11300D06ABD8FE19EE497BD86BD8EB582608EBDFC
S11300E00895CF93DF93CDB7DEB76E970FB6F8942C
S11300F0DEBF0FBECDBF80E895E20E9432032FEF32
S113010080E792E0215080409040E1F700C0000079
S1130110789481B3806281BB87B3816087BB87B3E6
S1130120826087BB87B3846087BB81B3806881BBEF
S11301300E94490060E070E084EB92E40E94590060
S1130140EFEFF9E628E1E150F0402040E1F700C08C
S113015000001092710010927200109273001092BD
S1130160740000E010E015C10E944900B801012E9E
S1130170000C880B990B0E9400040E9459008FE424
S113018093EC0197F1F700C000000E94180388B3B4
S1130190826088BB95E89A95F1F7000088B38D7F5B
S11301A088BB0E940C03A0E0B0E080936D009093A4
S11301B06E00A0936F00B09370000E941C03A0E037
S11301C0B0E08093690090936A00A0936B00B093B1
S11301D06C000E942E038091690090916A00A091A6
S11301E06B00B0916C0040916D0050916E00609175
S11301F06F0070917000841B950BA60BB70B809356
S1130200650090936600A0936700B0936800209106
S11302106500309166004091670050916800A8E93C
S1130220B5E80E941B0520E034E244EF50E00E9450
S1130230F90420937100309372004093730050933B
S113024074008091710090917200A0917300B0913C
S11302507400892B8A2B8B2B09F45BC0809171006D
S113026090917200A0917300B09174008997A105D8
S1130270B10508F04EC08091710090917200A09178
S11302807300B0917400BF93AF939F938F930F2E1D
S1130290F0E6EF2EF0E0FF2EF02DFF92EF92FE013C
S11302A031965F01FF93EF930E9447051F930F93CD
S11302B0FF92EF926E01FBE0CF0ED11CDF92CF9242
S11302C00E9447057E0125E1E20EF11CB501C7013C
S11302D00E944005F70101900020E9F7319780E280
S11302E090E091838083B601C7010E943505F70130
S11302F001900020E9F731978AE090E091838083B0
S1130300C7010E944F030FB6F894DEBF0FBECDBFE6
S113031031C01F930F9380E690E09F938F936E01FB
S11303209BE0C90ED11CDF92CF920E9447057E014B
S1130330E5E1EE0EF11C8DE291E39E8B8D8B80E264
S113034090E0F70193838283B601C7010E943505CB
S1130350F70101900020E9F731978AE090E091835A
S11303608083C7010E944F030F900F900F900F904E
S11303700F900F90FFEF21EE84E0F1502040804079
S1130380E1F700C0000080916400080F111D87FD93
S11303901A95003B11050CF4E7CE04EB10E015C1EF
S11303A00E944900B801012E000C880B990B0E9491
S11303B000040E945900EFE4F3EC3197F1F700C018
S11303C000000E94180388B3826088BBF5E8FA95A0
S11303D0F1F7000088B38D7F88BB0E940C03A0E076
S11303E0B0E080936D0090936E00A0936F00B09383
S11303F070000E941C03A0E0B0E080936900909319
S11304006A00A0936B00B0936C000E942E0380914D
S1130410690090916A00A0916B00B0916C004091CA
S11304206D0050916E0060916F0070917000841B9C
S1130430950BA60BB70B8093650090936600A09371
S11304406700B09368002091650030916600409188
S1130450670050916800A8E9B5E80E941B0520E0F8
S113046034E244EF50E00E94F90420937100309389
S113047072004093730050937400809171009091C6
S11304807200A0917300B0917400892B8A2B8B2B7E
S113049009F45BC08091710090917200A091730087
S11304A0B09174008997A105B10508F04EC0809100
S11304B0710090917200A0917300B0917400BF9389
S11304C0AF939F938F930F2EF0E6EF2EF0E0FF2E65
S11304D0F02DFF92EF92CE0101965C019F938F93D2
S11304E00E9447051F930F93FF92EF926E019BE0CA
S11304F0C90ED11CDF92CF920E9447057E01E5E12F
S1130500EE0EF11CB501C7010E944005F7010190F0
S11305100020E9F7319780E290E091838083B6016F
S1130520C7010E943505F70101900020E9F73197D2
S11305308AE090E091838083C7010E944F030FB645
S1130540F894DEBF0FBECDBF31C01F930F9380E67A
S113055090E09F938F936E019BE0C90ED11CDF92B4
S1130560CF920E9447057E01E5E1EE0EF11C8DE27B
S113057091E39E8B8D8B80E290E0F70193838283DD
S1130580B601C7010E943505F70101900020E9F783
S113059031978AE090E091838083C7010E944F03E2
S11305A00F900F900F900F900F900F90FFEF21EE90
S11305B084E0F15020408040E1F700C000008091C9
S11305C06400081B110987FD1395053011050CF013
S11305D0E7CEBFCD1F920F920FB60F9211248F93C7
S11305E08AB1877F8AB98AB18F7E8AB98091640083
S11305F0882319F01092640003C085E0809364009E
S11306008AB188608AB98AB180618AB98F910F9062
S11306100FBE0F901F90189581EC8EBD03C088B358
S1130620816088BB08B605FEFACF86B597B50895F4
S11306301FBC80E288BF089588B7806288BF81E8C4
S11306408EBD88B38B7F88BB03C088B3846088BBAE
S113065008B605FEFACF86B597B508951DBC1CBC37
S11306601EBC08959C0140E050E060E271EA87E01E
S113067090E00E94F9042150310930BD29B98AB1B2
S113068080618AB98AB188608AB98AB180688AB976
S113069086E880BD08955D9BFECF8CB90895CF9305
S11306A0DF93EC0109C00E944B0321968FEC97E085
S11306B00197F1F700C0000088818111F4CFDF9128
S11306C0CF9108955058BB27AA270E947A030C940F
S11306D052040E94440438F00E944B0420F039F480
S11306E09F3F19F426F40C9441040EF4E095E7FBC3
S11306F00C943B04E92F0E94630458F3BA17620771
S113070073078407950720F079F4A6F50C94850403
S11307100EF4E0950B2EBA2FA02D0B01B901900118
S11307200C01CA01A0011124FF27591B99F0593F5C
S113073050F4503E68F11A16F040A22F232F342FA4
S11307404427585FF3CF469537952795A795F040F2
S11307505395C9F77EF41F16BA0B620B730B840B07
S1130760BAF09150A1F0FF0FBB1F661F771F881FBF
S1130770C2F70EC0BA0F621F731F841F48F4879517
S113078077956795B795F7959E3F08F0B0CF939509
S1130790880F08F09927EE0F9795879508950E9482
S11307A06B0488F09F5798F0B92F9927B751B0F090
S11307B0E1F0660F771F881F991F1AF0BA95C9F7E1
S11307C014C0B13091F00E948504B1E008950C94F6
S11307D08504672F782F8827B85F39F0B93FCCF3A9
S11307E0869577956795B395D9F73EF4909580955E
S11307F0709561957F4F8F4F9F4F0895E89409C07E
S113080097FB3EF490958095709561957F4F8F4F3F
S11308109F4F9923A9F0F92F96E9BB279395F69555
S1130820879577956795B795F111F8CFFAF4BB0FD3
S113083011F460FF1BC06F5F7F4F8F4F9F4F16C037
S1130840882311F096E911C0772321F09EE8872FC1
S1130850762F05C0662371F096E8862F70E060E07D
S11308602AF09A95660F771F881FDAF7880F9695F6
S1130870879597F9089597F99F6780E870E060E09D
S113088008959FEF80EC089500240A941616170625
S113089018060906089500240A941216130614066D
S11308A005060895092E0394000C11F4882352F0D0
S11308B0BB0F40F4BF2B11F460FF04C06F5F7F4F88
S11308C08F4F9F4F089557FD9058440F551F59F06F
S11308D05F3F71F04795880F97FB991F61F09F3F29
S11308E079F087950895121613061406551FF2CF52
S11308F04695F1DF08C0161617061806991FF1CFA2
S113090086957105610508940895E894BB276627C8
S11309107727CB0197F908950E949F040C94520401
S11309200E94440438F00E944B0420F0952311F0F7
S11309300C943B040C94410411240C9486040E94EE
S1130940630470F3959FC1F3950F50E0551F629FA8
S1130950F001729FBB27F00DB11D639FAA27F00D14
S1130960B11DAA1F649F6627B00DA11D661F829F3B
S11309702227B00DA11D621F739FB00DA11D621F20
S1130980839FA00D611D221F749F3327A00D611D3D
S1130990231F849F600D211D822F762F6A2F11241F
S11309A09F5750409AF0F1F088234AF0EE0FFF1F52
S11309B0BB1F661F771F881F91505040A9F79E3FA9
S11309C0510580F00C943B040C9486045F3FE4F3DF
S11309D0983ED4F3869577956795B795F795E795FF
S11309E09F5FC1F7FE2B880F911D9695879597F908
S11309F00895A1E21A2EAA1BBB1BFD010DC0AA1F5C
S1130A00BB1FEE1FFF1FA217B307E407F50720F073
S1130A10A21BB30BE40BF50B661F771F881F991FEE
S1130A201A9469F760957095809590959B01AC0137
S1130A30BD01CF0108950E942605A59F900DB49F86
S1130A40900DA49F800D911D11240895A29FB001C3
S1130A50B39FC001A39F700D811D1124911DB29FEE
S1130A60700D811D1124911D0895FB01DC010D9071
S1130A700020E9F7119701900D920020E1F7089505
S1130A80FB01DC0101900D920020E1F70895AEE036
S1130A90B0E0EDE4F5E00C9408080D891E8986E0C9
S1130AA08C831A8309838FEF9FE79E838D83AE0126
S1130AB0475E5F4F6F89788DCE0101960E9469056C
S1130AC0EF81F885E00FF11F10822E96E4E00C947C
S1130AD02408ABE0B0E0EFE6F5E00C94FA076C0113
S1130AE07B018A01FC0117821682838181FFCCC1BC
S1130AF0CE0101963C01F6019381F70193FD8591A6
S1130B0093FF81917F01882309F4BAC1853239F4B6
S1130B1093FD859193FF81917F01853229F4B6017C
S1130B2090E00E946007E7CF912C212C312CFFE14B
S1130B30F315D8F08B3279F038F4803279F08332BF
S1130B40A1F4232D20611DC08D3261F0803369F43E
S1130B50232D216016C0832D8260382EE32DE4609E
S1130B603E2E2AC0F32DF8601DC037FC2DC020EDA9
S1130B70280F2A3040F08E32B9F436FC81C1232D7F
S1130B802064322E19C036FE06C08AE0989E200DDD
S1130B901124922E11C0EAE02E9E200D1124222E43
S1130BA0F32DF0623F2E08C08C3621F4832D80682B
S1130BB0382E02C0883641F4F70193FD859193FFE6
S1130BC081917F018111B3CF982F9F7D95549330EC
S1130BD028F40C5F1F4F9FE399830DC0833631F0D7
S1130BE0833771F0833509F059C021C0F801808141
S1130BF089830E5F1F4F88248394912C530113C063
S1130C002801F2E04F0E511CF801A080B18036FE9D
S1130C1003C0692D70E002C06FEF7FEFC5010E9431
S1130C2055074C018201F32DFF773F2E16C0280192
S1130C3022E0420E511CF801A080B18036FE03C0B0
S1130C40692D70E002C06FEF7FEFC5010E944A0773
S1130C504C01F32DF0683F2E820133FC1BC0822D22
S1130C6090E088169906B0F4B60180E290E00E9404
S1130C7060072A94F4CFF50137FC859137FE819102
S1130C805F01B60190E00E94600721102A9421E0E0
S1130C90821A91088114910471F7E8C0843611F026
S1130CA0893641F5F80137FE07C060817181828180
S1130CB093810C5F1F4F08C060817181072E000C67
S1130CC0880B990B0E5F1F4FF32DFF763F2E97FF76
S1130CD009C090958095709561957F4F8F4F9F4F78
S1130CE0F0683F2E2AE030E0A3010E949C07882E82
S1130CF0861845C0853731F4232D2F7EB22E2AE085
S1130D0030E025C0932D997FB92E8F36C1F018F4A9
S1130D10883579F0B5C0803719F0883721F0B0C034
S1130D20E92FE061BE2EB4FE0DC0FB2DF460BF2E92
S1130D3009C034FE0AC0292F2660B22E06C028E05E
S1130D4030E005C020E130E002C020E132E0F801EB
S1130D50B7FE07C060817181828193810C5F1F4F50
S1130D6006C06081718180E090E00E5F1F4FA30197
S1130D700E949C07882E8618FB2DFF773F2E36FE97
S1130D800DC0232D2E7FA22E891458F434FE0BC0DF
S1130D9032FC09C0832D8E7EA82E05C0B82CA32C4E
S1130DA003C0B82C01C0B92CA4FE0FC0FE01E80D8D
S1130DB0F11D8081803321F49A2D997EA92E09C0DA
S1130DC0A2FE06C0B394B39404C08A2D867809F0B9
S1130DD0B394A3FC11C0A0FE06C0B21488F4280C7E
S1130DE0922C9B180EC0B21460F4B60180E290E01D
S1130DF00E946007B394F7CFB21418F42B1802C002
S1130E00982C212CA4FE10C0B60180E390E00E942F
S1130E106007A2FE17C0A1FC03C088E790E002C0EF
S1130E2088E590E0B6010CC08A2D867859F0A1FEC1
S1130E3002C08BE201C080E2A7FC8DE2B60190E023
S1130E400E946007891438F4B60180E390E00E94A0
S1130E5060079A94F7CF8A94F301E80DF11D80811D
S1130E60B60190E00E9460078110F5CF222009F4BA
S1130E7042CEB60180E290E00E9460072A94F6CF49
S1130E80F6018681978102C08FEF9FEF2B96E2E1F6
S1130E900C941608FC010590615070400110D8F7BD
S1130EA0809590958E0F9F1F0895FC0161507040AE
S1130EB001900110D8F7809590958E0F9F1F08958B
S1130EC00F931F93CF93DF93FB01238121FD03C075
S1130ED08FEF9FEF2CC022FF16C0468157812481DB
S1130EE035814217530744F4A081B1819D012F5FDE
S1130EF03F4F318320838C93268137812F5F3F4F6F
S1130F003783268314C08B01EC01FB010084F18537
S1130F10E02D0995892BE1F6D80116968D919C91C7
S1130F201797019617969C938E931697CE01DF918F
S1130F30CF911F910F910895FA01AA27283051F1FA
S1130F40203181F1E8946F936E7F6E5F7F4F8F4FF6
S1130F509F4FAF4FB1E03ED0B4E03CD0670F781F55
S1130F60891F9A1FA11D680F791F8A1F911DA11D3A
S1130F706A0F711D811D911DA11D20D009F4689473
S1130F803F912AE0269F11243019305D3193DEF61B
S1130F90CF010895462F4770405D4193B3E00FD0D1
S1130FA0C9F7F6CF462F4F70405D4A3318F0495DBC
S1130FB031FD4052419302D0A9F7EACFB4E0A6959F
S1130FC09795879577956795BA95C9F700976105C1
S1130FD0710508959B01AC010A2E06945795479517
S1130FE037952795BA95C9F7620F731F841F951F0C
S1130FF0A01D08952F923F924F925F926F927F921D
S11310008F929F92AF92BF92CF92DF92EF92FF9214
S11310100F931F93CF93DF93CDB7DEB7CA1BDB0BC0
S11310200FB6F894DEBF0FBECDBF09942A88398865
S113103048885F846E847D848C849B84AA84B9846C
S1131040C884DF80EE80FD800C811B81AA81B98178
S1131050CE0FD11D0FB6F894DEBF0FBECDBFED018C
S10910600895F894FFCF8F
S107106625640000F9
S9030000FC
